{
  "_format": "hh-sol-artifact-1",
  "contractName": "NFT",
  "sourceName": "contracts/NFT.sol",
  "abi": [
    {
      "inputs": [
        {
          "internalType": "address",
          "name": "marketplaceAddress",
          "type": "address"
        }
      ],
      "stateMutability": "nonpayable",
      "type": "constructor"
    },
    {
      "anonymous": false,
      "inputs": [
        {
          "indexed": true,
          "internalType": "address",
          "name": "owner",
          "type": "address"
        },
        {
          "indexed": true,
          "internalType": "address",
          "name": "approved",
          "type": "address"
        },
        {
          "indexed": true,
          "internalType": "uint256",
          "name": "tokenId",
          "type": "uint256"
        }
      ],
      "name": "Approval",
      "type": "event"
    },
    {
      "anonymous": false,
      "inputs": [
        {
          "indexed": true,
          "internalType": "address",
          "name": "owner",
          "type": "address"
        },
        {
          "indexed": true,
          "internalType": "address",
          "name": "operator",
          "type": "address"
        },
        {
          "indexed": false,
          "internalType": "bool",
          "name": "approved",
          "type": "bool"
        }
      ],
      "name": "ApprovalForAll",
      "type": "event"
    },
    {
      "anonymous": false,
      "inputs": [
        {
          "indexed": true,
          "internalType": "address",
          "name": "from",
          "type": "address"
        },
        {
          "indexed": true,
          "internalType": "address",
          "name": "to",
          "type": "address"
        },
        {
          "indexed": true,
          "internalType": "uint256",
          "name": "tokenId",
          "type": "uint256"
        }
      ],
      "name": "Transfer",
      "type": "event"
    },
    {
      "inputs": [
        {
          "internalType": "address",
          "name": "to",
          "type": "address"
        },
        {
          "internalType": "uint256",
          "name": "tokenId",
          "type": "uint256"
        }
      ],
      "name": "approve",
      "outputs": [],
      "stateMutability": "nonpayable",
      "type": "function"
    },
    {
      "inputs": [
        {
          "internalType": "address",
          "name": "owner",
          "type": "address"
        }
      ],
      "name": "balanceOf",
      "outputs": [
        {
          "internalType": "uint256",
          "name": "",
          "type": "uint256"
        }
      ],
      "stateMutability": "view",
      "type": "function"
    },
    {
      "inputs": [
        {
          "internalType": "string",
          "name": "tokenURI",
          "type": "string"
        }
      ],
      "name": "createToken",
      "outputs": [
        {
          "internalType": "uint256",
          "name": "",
          "type": "uint256"
        }
      ],
      "stateMutability": "nonpayable",
      "type": "function"
    },
    {
      "inputs": [
        {
          "internalType": "uint256",
          "name": "tokenId",
          "type": "uint256"
        }
      ],
      "name": "getApproved",
      "outputs": [
        {
          "internalType": "address",
          "name": "",
          "type": "address"
        }
      ],
      "stateMutability": "view",
      "type": "function"
    },
    {
      "inputs": [
        {
          "internalType": "address",
          "name": "owner",
          "type": "address"
        },
        {
          "internalType": "address",
          "name": "operator",
          "type": "address"
        }
      ],
      "name": "isApprovedForAll",
      "outputs": [
        {
          "internalType": "bool",
          "name": "",
          "type": "bool"
        }
      ],
      "stateMutability": "view",
      "type": "function"
    },
    {
      "inputs": [],
      "name": "name",
      "outputs": [
        {
          "internalType": "string",
          "name": "",
          "type": "string"
        }
      ],
      "stateMutability": "view",
      "type": "function"
    },
    {
      "inputs": [
        {
          "internalType": "uint256",
          "name": "tokenId",
          "type": "uint256"
        }
      ],
      "name": "ownerOf",
      "outputs": [
        {
          "internalType": "address",
          "name": "",
          "type": "address"
        }
      ],
      "stateMutability": "view",
      "type": "function"
    },
    {
      "inputs": [
        {
          "internalType": "address",
          "name": "from",
          "type": "address"
        },
        {
          "internalType": "address",
          "name": "to",
          "type": "address"
        },
        {
          "internalType": "uint256",
          "name": "tokenId",
          "type": "uint256"
        }
      ],
      "name": "safeTransferFrom",
      "outputs": [],
      "stateMutability": "nonpayable",
      "type": "function"
    },
    {
      "inputs": [
        {
          "internalType": "address",
          "name": "from",
          "type": "address"
        },
        {
          "internalType": "address",
          "name": "to",
          "type": "address"
        },
        {
          "internalType": "uint256",
          "name": "tokenId",
          "type": "uint256"
        },
        {
          "internalType": "bytes",
          "name": "data",
          "type": "bytes"
        }
      ],
      "name": "safeTransferFrom",
      "outputs": [],
      "stateMutability": "nonpayable",
      "type": "function"
    },
    {
      "inputs": [
        {
          "internalType": "address",
          "name": "operator",
          "type": "address"
        },
        {
          "internalType": "bool",
          "name": "approved",
          "type": "bool"
        }
      ],
      "name": "setApprovalForAll",
      "outputs": [],
      "stateMutability": "nonpayable",
      "type": "function"
    },
    {
      "inputs": [
        {
          "internalType": "bytes4",
          "name": "interfaceId",
          "type": "bytes4"
        }
      ],
      "name": "supportsInterface",
      "outputs": [
        {
          "internalType": "bool",
          "name": "",
          "type": "bool"
        }
      ],
      "stateMutability": "view",
      "type": "function"
    },
    {
      "inputs": [],
      "name": "symbol",
      "outputs": [
        {
          "internalType": "string",
          "name": "",
          "type": "string"
        }
      ],
      "stateMutability": "view",
      "type": "function"
    },
    {
      "inputs": [
        {
          "internalType": "uint256",
          "name": "tokenId",
          "type": "uint256"
        }
      ],
      "name": "tokenURI",
      "outputs": [
        {
          "internalType": "string",
          "name": "",
          "type": "string"
        }
      ],
      "stateMutability": "view",
      "type": "function"
    },
    {
      "inputs": [
        {
          "internalType": "address",
          "name": "from",
          "type": "address"
        },
        {
          "internalType": "address",
          "name": "to",
          "type": "address"
        },
        {
          "internalType": "uint256",
          "name": "tokenId",
          "type": "uint256"
        }
      ],
      "name": "transferFrom",
      "outputs": [],
      "stateMutability": "nonpayable",
      "type": "function"
    }
  ],
  "bytecode": "0x60806040523480156200001157600080fd5b506040516200179938038062001799833981016040819052620000349162000167565b60408051808201825260098152684d657461766572736560b81b6020808301918252835180850190945260048452631351551560e21b9084015281519192916200008191600091620000c1565b50805162000097906001906020840190620000c1565b5050600880546001600160a01b0319166001600160a01b03939093169290921790915550620001d4565b828054620000cf9062000197565b90600052602060002090601f016020900481019282620000f357600085556200013e565b82601f106200010e57805160ff19168380011785556200013e565b828001600101855582156200013e579182015b828111156200013e57825182559160200191906001019062000121565b506200014c92915062000150565b5090565b5b808211156200014c576000815560010162000151565b60006020828403121562000179578081fd5b81516001600160a01b038116811462000190578182fd5b9392505050565b600181811c90821680620001ac57607f821691505b60208210811415620001ce57634e487b7160e01b600052602260045260246000fd5b50919050565b6115b580620001e46000396000f3fe608060405234801561001057600080fd5b50600436106100ea5760003560e01c80636352211e1161008c578063a22cb46511610066578063a22cb465146101e1578063b88d4fde146101f4578063c87b56dd14610207578063e985e9c51461021a576100ea565b80636352211e146101b357806370a08231146101c657806395d89b41146101d9576100ea565b8063095ea7b3116100c8578063095ea7b31461015757806323b872dd1461016c57806342842e0e1461017f57806345576f9414610192576100ea565b806301ffc9a7146100ef57806306fdde0314610117578063081812fc1461012c575b600080fd5b6101026100fd3660046112c7565b610256565b60405190151581526020015b60405180910390f35b61011f6102aa565b60405161010e91906113f5565b61013f61013a366004611345565b61033c565b6040516001600160a01b03909116815260200161010e565b61016a61016536600461129e565b610363565b005b61016a61017a3660046111b0565b61047e565b61016a61018d3660046111b0565b6104af565b6101a56101a03660046112ff565b6104ca565b60405190815260200161010e565b61013f6101c1366004611345565b610512565b6101a56101d4366004611164565b610572565b61011f6105f8565b61016a6101ef366004611264565b610607565b61016a6102023660046111eb565b610616565b61011f610215366004611345565b61064e565b61010261022836600461117e565b6001600160a01b03918216600090815260056020908152604080832093909416825291909152205460ff1690565b60006001600160e01b031982166380ac58cd60e01b148061028757506001600160e01b03198216635b5e139f60e01b145b806102a257506301ffc9a760e01b6001600160e01b03198316145b90505b919050565b6060600080546102b990611518565b80601f01602080910402602001604051908101604052809291908181526020018280546102e590611518565b80156103325780601f1061030757610100808354040283529160200191610332565b820191906000526020600020905b81548152906001019060200180831161031557829003601f168201915b5050505050905090565b600061034782610760565b506000908152600460205260409020546001600160a01b031690565b600061036e82610512565b9050806001600160a01b0316836001600160a01b031614156103e15760405162461bcd60e51b815260206004820152602160248201527f4552433732313a20617070726f76616c20746f2063757272656e74206f776e656044820152603960f91b60648201526084015b60405180910390fd5b336001600160a01b03821614806103fd57506103fd8133610228565b61046f5760405162461bcd60e51b815260206004820152603d60248201527f4552433732313a20617070726f76652063616c6c6572206973206e6f7420746f60448201527f6b656e206f776e6572206f7220617070726f76656420666f7220616c6c00000060648201526084016103d8565b61047983836107c2565b505050565b6104883382610830565b6104a45760405162461bcd60e51b81526004016103d890611408565b6104798383836108ae565b61047983838360405180602001604052806000815250610616565b60006104da600780546001019055565b60006104e560075490565b90506104f13382610a12565b6104fb8184610b9e565b6008546102a2906001600160a01b03166001610607565b6000818152600260205260408120546001600160a01b0316806102a25760405162461bcd60e51b8152602060048201526018602482015277115490cdcc8c4e881a5b9d985b1a59081d1bdad95b88125160421b60448201526064016103d8565b60006001600160a01b0382166105dc5760405162461bcd60e51b815260206004820152602960248201527f4552433732313a2061646472657373207a65726f206973206e6f7420612076616044820152683634b21037bbb732b960b91b60648201526084016103d8565b506001600160a01b031660009081526003602052604090205490565b6060600180546102b990611518565b610612338383610c38565b5050565b6106203383610830565b61063c5760405162461bcd60e51b81526004016103d890611408565b61064884848484610d07565b50505050565b606061065982610760565b6000828152600660205260408120805461067290611518565b80601f016020809104026020016040519081016040528092919081815260200182805461069e90611518565b80156106eb5780601f106106c0576101008083540402835291602001916106eb565b820191906000526020600020905b8154815290600101906020018083116106ce57829003601f168201915b50505050509050600061070960408051602081019091526000815290565b905080516000141561071d575090506102a5565b81511561074f578082604051602001610737929190611389565b604051602081830303815290604052925050506102a5565b61075884610d3a565b949350505050565b6000818152600260205260409020546001600160a01b03166107bf5760405162461bcd60e51b8152602060048201526018602482015277115490cdcc8c4e881a5b9d985b1a59081d1bdad95b88125160421b60448201526064016103d8565b50565b600081815260046020526040902080546001600160a01b0319166001600160a01b03841690811790915581906107f782610512565b6001600160a01b03167f8c5be1e5ebec7d5bd14f71427d1e84f3dd0314c0f7b2291e5b200ac8c7c3b92560405160405180910390a45050565b60008061083c83610512565b9050806001600160a01b0316846001600160a01b0316148061088357506001600160a01b0380821660009081526005602090815260408083209388168352929052205460ff165b806107585750836001600160a01b031661089c8461033c565b6001600160a01b031614949350505050565b826001600160a01b03166108c182610512565b6001600160a01b0316146108e75760405162461bcd60e51b81526004016103d8906114a7565b6001600160a01b0382166109495760405162461bcd60e51b8152602060048201526024808201527f4552433732313a207472616e7366657220746f20746865207a65726f206164646044820152637265737360e01b60648201526084016103d8565b826001600160a01b031661095c82610512565b6001600160a01b0316146109825760405162461bcd60e51b81526004016103d8906114a7565b600081815260046020908152604080832080546001600160a01b03199081169091556001600160a01b0387811680865260038552838620805460001901905590871680865283862080546001019055868652600290945282852080549092168417909155905184937fddf252ad1be2c89b69c2b068fc378daa952ba7f163c4a11628f55a4df523b3ef91a4610479565b6001600160a01b038216610a685760405162461bcd60e51b815260206004820181905260248201527f4552433732313a206d696e7420746f20746865207a65726f206164647265737360448201526064016103d8565b6000818152600260205260409020546001600160a01b031615610acd5760405162461bcd60e51b815260206004820152601c60248201527f4552433732313a20746f6b656e20616c7265616479206d696e7465640000000060448201526064016103d8565b6000818152600260205260409020546001600160a01b031615610b325760405162461bcd60e51b815260206004820152601c60248201527f4552433732313a20746f6b656e20616c7265616479206d696e7465640000000060448201526064016103d8565b6001600160a01b038216600081815260036020908152604080832080546001019055848352600290915280822080546001600160a01b0319168417905551839291907fddf252ad1be2c89b69c2b068fc378daa952ba7f163c4a11628f55a4df523b3ef908290a4610612565b6000828152600260205260409020546001600160a01b0316610c195760405162461bcd60e51b815260206004820152602e60248201527f45524337323155524953746f726167653a2055524920736574206f66206e6f6e60448201526d32bc34b9ba32b73a103a37b5b2b760911b60648201526084016103d8565b600082815260066020908152604090912082516104799284019061103e565b816001600160a01b0316836001600160a01b03161415610c9a5760405162461bcd60e51b815260206004820152601960248201527f4552433732313a20617070726f766520746f2063616c6c65720000000000000060448201526064016103d8565b6001600160a01b03838116600081815260056020908152604080832094871680845294825291829020805460ff191686151590811790915591519182527f17307eab39ab6107e8899845ad3d59bd9653f200f220920489ca2b5937696c31910160405180910390a3505050565b610d128484846108ae565b610d1e84848484610dae565b6106485760405162461bcd60e51b81526004016103d890611455565b6060610d4582610760565b6000610d5c60408051602081019091526000815290565b90506000815111610d7c5760405180602001604052806000815250610da7565b80610d8684610ebb565b604051602001610d97929190611389565b6040516020818303038152906040525b9392505050565b60006001600160a01b0384163b15610eb057604051630a85bd0160e11b81526001600160a01b0385169063150b7a0290610df29033908990889088906004016113b8565b602060405180830381600087803b158015610e0c57600080fd5b505af1925050508015610e3c575060408051601f3d908101601f19168201909252610e39918101906112e3565b60015b610e96573d808015610e6a576040519150601f19603f3d011682016040523d82523d6000602084013e610e6f565b606091505b508051610e8e5760405162461bcd60e51b81526004016103d890611455565b805181602001fd5b6001600160e01b031916630a85bd0160e11b149050610758565b506001949350505050565b60606000610ec883610f66565b600101905060008167ffffffffffffffff811115610ef657634e487b7160e01b600052604160045260246000fd5b6040519080825280601f01601f191660200182016040528015610f20576020820181803683370190505b5090508181016020015b600019016f181899199a1a9b1b9c1cb0b131b232b360811b600a86061a8153600a8504945084610f5957610f5e565b610f2a565b509392505050565b60008072184f03e93ff9f4daa797ed6e38ed64bf6a1f0160401b8310610fa55772184f03e93ff9f4daa797ed6e38ed64bf6a1f0160401b830492506040015b6d04ee2d6d415b85acef81000000008310610fd1576d04ee2d6d415b85acef8100000000830492506020015b662386f26fc100008310610fef57662386f26fc10000830492506010015b6305f5e1008310611007576305f5e100830492506008015b612710831061101b57612710830492506004015b6064831061102d576064830492506002015b600a83106102a25760010192915050565b82805461104a90611518565b90600052602060002090601f01602090048101928261106c57600085556110b2565b82601f1061108557805160ff19168380011785556110b2565b828001600101855582156110b2579182015b828111156110b2578251825591602001919060010190611097565b506110be9291506110c2565b5090565b5b808211156110be57600081556001016110c3565b600067ffffffffffffffff808411156110f2576110f2611553565b604051601f8501601f19908116603f0116810190828211818310171561111a5761111a611553565b8160405280935085815286868601111561113357600080fd5b858560208301376000602087830101525050509392505050565b80356001600160a01b03811681146102a557600080fd5b600060208284031215611175578081fd5b610da78261114d565b60008060408385031215611190578081fd5b6111998361114d565b91506111a76020840161114d565b90509250929050565b6000806000606084860312156111c4578081fd5b6111cd8461114d565b92506111db6020850161114d565b9150604084013590509250925092565b60008060008060808587031215611200578081fd5b6112098561114d565b93506112176020860161114d565b925060408501359150606085013567ffffffffffffffff811115611239578182fd5b8501601f81018713611249578182fd5b611258878235602084016110d7565b91505092959194509250565b60008060408385031215611276578182fd5b61127f8361114d565b915060208301358015158114611293578182fd5b809150509250929050565b600080604083850312156112b0578182fd5b6112b98361114d565b946020939093013593505050565b6000602082840312156112d8578081fd5b8135610da781611569565b6000602082840312156112f4578081fd5b8151610da781611569565b600060208284031215611310578081fd5b813567ffffffffffffffff811115611326578182fd5b8201601f81018413611336578182fd5b610758848235602084016110d7565b600060208284031215611356578081fd5b5035919050565b600081518084526113758160208601602086016114ec565b601f01601f19169290920160200192915050565b6000835161139b8184602088016114ec565b8351908301906113af8183602088016114ec565b01949350505050565b6001600160a01b03858116825284166020820152604081018390526080606082018190526000906113eb9083018461135d565b9695505050505050565b600060208252610da7602083018461135d565b6020808252602d908201527f4552433732313a2063616c6c6572206973206e6f7420746f6b656e206f776e6560408201526c1c881bdc88185c1c1c9bdd9959609a1b606082015260800190565b60208082526032908201527f4552433732313a207472616e7366657220746f206e6f6e20455243373231526560408201527131b2b4bb32b91034b6b83632b6b2b73a32b960711b606082015260800190565b60208082526025908201527f4552433732313a207472616e736665722066726f6d20696e636f72726563742060408201526437bbb732b960d91b606082015260800190565b60005b838110156115075781810151838201526020016114ef565b838111156106485750506000910152565b600181811c9082168061152c57607f821691505b6020821081141561154d57634e487b7160e01b600052602260045260246000fd5b50919050565b634e487b7160e01b600052604160045260246000fd5b6001600160e01b0319811681146107bf57600080fdfea2646970667358221220888ddfcf7e285a1778d0c694ca2a42dc1f944de81da47aaf5e65a8337de17ee864736f6c63430008030033",
  "linkReferences": {},
  "deployedLinkReferences": {}
}