{
  "_format": "hh-sol-artifact-1",
  "contractName": "NFTMarket",
  "sourceName": "contracts/market.sol",
  "abi": [
    {
      "inputs": [],
      "stateMutability": "nonpayable",
      "type": "constructor"
    },
    {
      "anonymous": false,
      "inputs": [
        {
          "indexed": true,
          "internalType": "uint256",
          "name": "itemId",
          "type": "uint256"
        },
        {
          "indexed": true,
          "internalType": "address",
          "name": "nftContract",
          "type": "address"
        },
        {
          "indexed": true,
          "internalType": "uint256",
          "name": "tokenId",
          "type": "uint256"
        },
        {
          "indexed": false,
          "internalType": "address",
          "name": "seller",
          "type": "address"
        },
        {
          "indexed": false,
          "internalType": "address",
          "name": "owner",
          "type": "address"
        },
        {
          "indexed": false,
          "internalType": "uint256",
          "name": "price",
          "type": "uint256"
        },
        {
          "indexed": false,
          "internalType": "bool",
          "name": "sold",
          "type": "bool"
        }
      ],
      "name": "MarketItemCreated",
      "type": "event"
    },
    {
      "inputs": [
        {
          "internalType": "address",
          "name": "nftContract",
          "type": "address"
        },
        {
          "internalType": "uint256",
          "name": "tokenId",
          "type": "uint256"
        },
        {
          "internalType": "uint256",
          "name": "price",
          "type": "uint256"
        }
      ],
      "name": "createMarketItem",
      "outputs": [],
      "stateMutability": "payable",
      "type": "function"
    },
    {
      "inputs": [
        {
          "internalType": "address",
          "name": "nftContract",
          "type": "address"
        },
        {
          "internalType": "uint256",
          "name": "itemId",
          "type": "uint256"
        }
      ],
      "name": "createMarketSale",
      "outputs": [],
      "stateMutability": "payable",
      "type": "function"
    },
    {
      "inputs": [],
      "name": "fetchItemsCreated",
      "outputs": [
        {
          "components": [
            {
              "internalType": "uint256",
              "name": "itemId",
              "type": "uint256"
            },
            {
              "internalType": "address",
              "name": "nftContract",
              "type": "address"
            },
            {
              "internalType": "uint256",
              "name": "tokenId",
              "type": "uint256"
            },
            {
              "internalType": "address payable",
              "name": "seller",
              "type": "address"
            },
            {
              "internalType": "address payable",
              "name": "owner",
              "type": "address"
            },
            {
              "internalType": "uint256",
              "name": "price",
              "type": "uint256"
            },
            {
              "internalType": "bool",
              "name": "sold",
              "type": "bool"
            }
          ],
          "internalType": "struct NFTMarket.MarketItem[]",
          "name": "",
          "type": "tuple[]"
        }
      ],
      "stateMutability": "view",
      "type": "function"
    },
    {
      "inputs": [],
      "name": "fetchMarketItems",
      "outputs": [
        {
          "components": [
            {
              "internalType": "uint256",
              "name": "itemId",
              "type": "uint256"
            },
            {
              "internalType": "address",
              "name": "nftContract",
              "type": "address"
            },
            {
              "internalType": "uint256",
              "name": "tokenId",
              "type": "uint256"
            },
            {
              "internalType": "address payable",
              "name": "seller",
              "type": "address"
            },
            {
              "internalType": "address payable",
              "name": "owner",
              "type": "address"
            },
            {
              "internalType": "uint256",
              "name": "price",
              "type": "uint256"
            },
            {
              "internalType": "bool",
              "name": "sold",
              "type": "bool"
            }
          ],
          "internalType": "struct NFTMarket.MarketItem[]",
          "name": "",
          "type": "tuple[]"
        }
      ],
      "stateMutability": "view",
      "type": "function"
    },
    {
      "inputs": [],
      "name": "fetchMyNFTs",
      "outputs": [
        {
          "components": [
            {
              "internalType": "uint256",
              "name": "itemId",
              "type": "uint256"
            },
            {
              "internalType": "address",
              "name": "nftContract",
              "type": "address"
            },
            {
              "internalType": "uint256",
              "name": "tokenId",
              "type": "uint256"
            },
            {
              "internalType": "address payable",
              "name": "seller",
              "type": "address"
            },
            {
              "internalType": "address payable",
              "name": "owner",
              "type": "address"
            },
            {
              "internalType": "uint256",
              "name": "price",
              "type": "uint256"
            },
            {
              "internalType": "bool",
              "name": "sold",
              "type": "bool"
            }
          ],
          "internalType": "struct NFTMarket.MarketItem[]",
          "name": "",
          "type": "tuple[]"
        }
      ],
      "stateMutability": "view",
      "type": "function"
    },
    {
      "inputs": [],
      "name": "getListingPrice",
      "outputs": [
        {
          "internalType": "uint256",
          "name": "",
          "type": "uint256"
        }
      ],
      "stateMutability": "view",
      "type": "function"
    }
  ],
  "bytecode": "0x60806040526658d15e1762800060045534801561001b57600080fd5b506001600055600380546001600160a01b03191633179055610b45806100426000396000f3fe6080604052600436106100555760003560e01c80630f08efe01461005a57806312e8558514610085578063202e3740146100a357806358eb2df5146100b8578063c23b139e146100cd578063f064c32e146100e0575b600080fd5b34801561006657600080fd5b5061006f6100f5565b60405161007c9190610a1b565b60405180910390f35b34801561009157600080fd5b5060045460405190815260200161007c565b3480156100af57600080fd5b5061006f6102a6565b6100cb6100c63660046109e9565b6102f7565b005b6100cb6100db3660046109c0565b610550565b3480156100ec57600080fd5b5061006f610724565b60606000610103600161090b565b90506000610111600261090b565b61011b600161090b565b6101259190610ac7565b90506000808267ffffffffffffffff81111561015157634e487b7160e01b600052604160045260246000fd5b60405190808252806020026020018201604052801561018a57816020015b61017761096d565b81526020019060019003908161016f5790505b50905060005b8481101561029d5760006005816101a8846001610aaf565b81526020810191909152604001600020600401546001600160a01b0316141561028b5760006101d8826001610aaf565b600081815260056020818152604092839020835160e0810185528154815260018201546001600160a01b0390811693820193909352600282015494810194909452600381015482166060850152600481015490911660808401529081015460a0830152600681015460ff16151560c083015285519293509185908790811061027057634e487b7160e01b600052603260045260246000fd5b6020908102919091010152610286600186610aaf565b945050505b8061029581610ade565b915050610190565b50935050505090565b606060006102b4600161090b565b604080516000808252602082019092529192509081908190816102ed565b6102da61096d565b8152602001906001900390816102d25790505b5094505050505090565b6102ff610913565b600081116103545760405162461bcd60e51b815260206004820152601c60248201527f5072696365206d757374206265206174206c656173742031207765690000000060448201526064015b60405180910390fd5b60045434146103b15760405162461bcd60e51b8152602060048201526024808201527f5072696365206d75737420626520657175616c20746f206c697374696e6720706044820152637269636560e01b606482015260840161034b565b6103bf600180546001019055565b60006103cb600161090b565b6040805160e0810182528281526001600160a01b0387811660208084018281528486018a8152336060870181815260006080890181815260a08a018e815260c08b018381528d8452600598899052928c90209a518b55955160018b018054918b166001600160a01b0319928316179055945160028b0155915160038a018054918a1691861691909117905590516004808a01805492909916919094161790965591519286019290925592516006909401805494151560ff199095169490941790935592516323b872dd60e01b81529182015230602482015260448101869052919250906323b872dd90606401600060405180830381600087803b1580156104d157600080fd5b505af11580156104e5573d6000803e3d6000fd5b505060408051338152600060208201819052818301879052606082015290518693506001600160a01b038816925084917f045dfa01dcba2b36aba1d3dc4a874f4b0c5d2fbeb8d2c4b34a7d88c8d8f929d1919081900360800190a45061054b6001600055565b505050565b610558610913565b6000818152600560208190526040909120908101546002909101543482146105ea576040805162461bcd60e51b81526020600482015260248101919091527f506c65617365207375626d6974207468652061736b696e67207072696365206960448201527f6e206f7264657220746f20636f6d706c65746520746865207075726368617365606482015260840161034b565b6000838152600560205260408082206003015490516001600160a01b03909116913480156108fc02929091818181858888f19350505050158015610632573d6000803e3d6000fd5b506040516323b872dd60e01b8152306004820152336024820152604481018290526001600160a01b038516906323b872dd90606401600060405180830381600087803b15801561068157600080fd5b505af1158015610695573d6000803e3d6000fd5b50505060008481526005602052604090206004810180546001600160a01b03191633179055600601805460ff19166001179055506106d7600280546001019055565b6003546004546040516001600160a01b039092169181156108fc0291906000818181858888f19350505050158015610713573d6000803e3d6000fd5b5050506107206001600055565b5050565b60606000610732600161090b565b905060008060005b83811015610795573360056000610752846001610aaf565b81526020810191909152604001600020600301546001600160a01b0316141561078357610780600184610aaf565b92505b8061078d81610ade565b91505061073a565b5060008267ffffffffffffffff8111156107bf57634e487b7160e01b600052604160045260246000fd5b6040519080825280602002602001820160405280156107f857816020015b6107e561096d565b8152602001906001900390816107dd5790505b50905060005b8481101561029d573360056000610816846001610aaf565b81526020810191909152604001600020600301546001600160a01b031614156108f9576000610846826001610aaf565b600081815260056020818152604092839020835160e0810185528154815260018201546001600160a01b0390811693820193909352600282015494810194909452600381015482166060850152600481015490911660808401529081015460a0830152600681015460ff16151560c08301528551929350918590879081106108de57634e487b7160e01b600052603260045260246000fd5b60209081029190910101526108f4600186610aaf565b945050505b8061090381610ade565b9150506107fe565b80545b919050565b600260005414156109665760405162461bcd60e51b815260206004820152601f60248201527f5265656e7472616e637947756172643a207265656e7472616e742063616c6c00604482015260640161034b565b6002600055565b6040805160e081018252600080825260208201819052918101829052606081018290526080810182905260a0810182905260c081019190915290565b80356001600160a01b038116811461090e57600080fd5b600080604083850312156109d2578182fd5b6109db836109a9565b946020939093013593505050565b6000806000606084860312156109fd578081fd5b610a06846109a9565b95602085013595506040909401359392505050565b602080825282518282018190526000919060409081850190868401855b82811015610aa257815180518552868101516001600160a01b039081168887015286820151878701526060808301518216908701526080808301519091169086015260a0808201519086015260c09081015115159085015260e09093019290850190600101610a38565b5091979650505050505050565b60008219821115610ac257610ac2610af9565b500190565b600082821015610ad957610ad9610af9565b500390565b6000600019821415610af257610af2610af9565b5060010190565b634e487b7160e01b600052601160045260246000fdfea2646970667358221220eb64d04a30e3ca855ba8ce66d827e984f61deed1e54f6e358e4f761e816decf264736f6c63430008030033",
  "linkReferences": {},
  "deployedLinkReferences": {}
}